{
  "abi": [
    {
      "type": "constructor",
      "inputs": [
        {
          "name": "_name",
          "type": "string",
          "internalType": "string"
        },
        {
          "name": "_symbol",
          "type": "string",
          "internalType": "string"
        },
        {
          "name": "_decimals",
          "type": "uint8",
          "internalType": "uint8"
        },
        {
          "name": "_descriptor",
          "type": "address",
          "internalType": "contract INounsDescriptorMinimal"
        },
        {
          "name": "_seeder",
          "type": "address",
          "internalType": "contract INounsSeeder"
        },
        {
          "name": "_minter",
          "type": "address",
          "internalType": "address"
        }
      ],
      "stateMutability": "nonpayable"
    },
    {
      "type": "function",
      "name": "DOMAIN_SEPARATOR",
      "inputs": [],
      "outputs": [
        {
          "name": "",
          "type": "bytes32",
          "internalType": "bytes32"
        }
      ],
      "stateMutability": "view"
    },
    {
      "type": "function",
      "name": "ID_ENCODING_PREFIX",
      "inputs": [],
      "outputs": [
        {
          "name": "",
          "type": "uint256",
          "internalType": "uint256"
        }
      ],
      "stateMutability": "view"
    },
    {
      "type": "function",
      "name": "allowance",
      "inputs": [
        {
          "name": "",
          "type": "address",
          "internalType": "address"
        },
        {
          "name": "",
          "type": "address",
          "internalType": "address"
        }
      ],
      "outputs": [
        {
          "name": "",
          "type": "uint256",
          "internalType": "uint256"
        }
      ],
      "stateMutability": "view"
    },
    {
      "type": "function",
      "name": "approve",
      "inputs": [
        {
          "name": "spender_",
          "type": "address",
          "internalType": "address"
        },
        {
          "name": "valueOrId_",
          "type": "uint256",
          "internalType": "uint256"
        }
      ],
      "outputs": [
        {
          "name": "",
          "type": "bool",
          "internalType": "bool"
        }
      ],
      "stateMutability": "nonpayable"
    },
    {
      "type": "function",
      "name": "balanceOf",
      "inputs": [
        {
          "name": "",
          "type": "address",
          "internalType": "address"
        }
      ],
      "outputs": [
        {
          "name": "",
          "type": "uint256",
          "internalType": "uint256"
        }
      ],
      "stateMutability": "view"
    },
    {
      "type": "function",
      "name": "dataURI",
      "inputs": [
        {
          "name": "tokenId",
          "type": "uint256",
          "internalType": "uint256"
        }
      ],
      "outputs": [
        {
          "name": "",
          "type": "string",
          "internalType": "string"
        }
      ],
      "stateMutability": "view"
    },
    {
      "type": "function",
      "name": "decimals",
      "inputs": [],
      "outputs": [
        {
          "name": "",
          "type": "uint8",
          "internalType": "uint8"
        }
      ],
      "stateMutability": "view"
    },
    {
      "type": "function",
      "name": "erc20Approve",
      "inputs": [
        {
          "name": "spender_",
          "type": "address",
          "internalType": "address"
        },
        {
          "name": "value_",
          "type": "uint256",
          "internalType": "uint256"
        }
      ],
      "outputs": [
        {
          "name": "",
          "type": "bool",
          "internalType": "bool"
        }
      ],
      "stateMutability": "nonpayable"
    },
    {
      "type": "function",
      "name": "erc20BalanceOf",
      "inputs": [
        {
          "name": "owner_",
          "type": "address",
          "internalType": "address"
        }
      ],
      "outputs": [
        {
          "name": "",
          "type": "uint256",
          "internalType": "uint256"
        }
      ],
      "stateMutability": "view"
    },
    {
      "type": "function",
      "name": "erc20TotalSupply",
      "inputs": [],
      "outputs": [
        {
          "name": "",
          "type": "uint256",
          "internalType": "uint256"
        }
      ],
      "stateMutability": "view"
    },
    {
      "type": "function",
      "name": "erc20TransferFrom",
      "inputs": [
        {
          "name": "from_",
          "type": "address",
          "internalType": "address"
        },
        {
          "name": "to_",
          "type": "address",
          "internalType": "address"
        },
        {
          "name": "value_",
          "type": "uint256",
          "internalType": "uint256"
        }
      ],
      "outputs": [
        {
          "name": "",
          "type": "bool",
          "internalType": "bool"
        }
      ],
      "stateMutability": "nonpayable"
    },
    {
      "type": "function",
      "name": "erc721Approve",
      "inputs": [
        {
          "name": "spender_",
          "type": "address",
          "internalType": "address"
        },
        {
          "name": "id_",
          "type": "uint256",
          "internalType": "uint256"
        }
      ],
      "outputs": [],
      "stateMutability": "nonpayable"
    },
    {
      "type": "function",
      "name": "erc721BalanceOf",
      "inputs": [
        {
          "name": "owner_",
          "type": "address",
          "internalType": "address"
        }
      ],
      "outputs": [
        {
          "name": "",
          "type": "uint256",
          "internalType": "uint256"
        }
      ],
      "stateMutability": "view"
    },
    {
      "type": "function",
      "name": "erc721TotalSupply",
      "inputs": [],
      "outputs": [
        {
          "name": "",
          "type": "uint256",
          "internalType": "uint256"
        }
      ],
      "stateMutability": "view"
    },
    {
      "type": "function",
      "name": "erc721TransferExempt",
      "inputs": [
        {
          "name": "target_",
          "type": "address",
          "internalType": "address"
        }
      ],
      "outputs": [
        {
          "name": "",
          "type": "bool",
          "internalType": "bool"
        }
      ],
      "stateMutability": "view"
    },
    {
      "type": "function",
      "name": "erc721TransferFrom",
      "inputs": [
        {
          "name": "from_",
          "type": "address",
          "internalType": "address"
        },
        {
          "name": "to_",
          "type": "address",
          "internalType": "address"
        },
        {
          "name": "id_",
          "type": "uint256",
          "internalType": "uint256"
        }
      ],
      "outputs": [],
      "stateMutability": "nonpayable"
    },
    {
      "type": "function",
      "name": "getApproved",
      "inputs": [
        {
          "name": "",
          "type": "uint256",
          "internalType": "uint256"
        }
      ],
      "outputs": [
        {
          "name": "",
          "type": "address",
          "internalType": "address"
        }
      ],
      "stateMutability": "view"
    },
    {
      "type": "function",
      "name": "getERC721QueueLength",
      "inputs": [],
      "outputs": [
        {
          "name": "",
          "type": "uint256",
          "internalType": "uint256"
        }
      ],
      "stateMutability": "view"
    },
    {
      "type": "function",
      "name": "getERC721TokensInQueue",
      "inputs": [
        {
          "name": "start_",
          "type": "uint256",
          "internalType": "uint256"
        },
        {
          "name": "count_",
          "type": "uint256",
          "internalType": "uint256"
        }
      ],
      "outputs": [
        {
          "name": "",
          "type": "uint256[]",
          "internalType": "uint256[]"
        }
      ],
      "stateMutability": "view"
    },
    {
      "type": "function",
      "name": "isApprovedForAll",
      "inputs": [
        {
          "name": "",
          "type": "address",
          "internalType": "address"
        },
        {
          "name": "",
          "type": "address",
          "internalType": "address"
        }
      ],
      "outputs": [
        {
          "name": "",
          "type": "bool",
          "internalType": "bool"
        }
      ],
      "stateMutability": "view"
    },
    {
      "type": "function",
      "name": "mintERC20",
      "inputs": [
        {
          "name": "to",
          "type": "address",
          "internalType": "address"
        },
        {
          "name": "value",
          "type": "uint256",
          "internalType": "uint256"
        }
      ],
      "outputs": [],
      "stateMutability": "nonpayable"
    },
    {
      "type": "function",
      "name": "minted",
      "inputs": [],
      "outputs": [
        {
          "name": "",
          "type": "uint256",
          "internalType": "uint256"
        }
      ],
      "stateMutability": "view"
    },
    {
      "type": "function",
      "name": "name",
      "inputs": [],
      "outputs": [
        {
          "name": "",
          "type": "string",
          "internalType": "string"
        }
      ],
      "stateMutability": "view"
    },
    {
      "type": "function",
      "name": "nonces",
      "inputs": [
        {
          "name": "",
          "type": "address",
          "internalType": "address"
        }
      ],
      "outputs": [
        {
          "name": "",
          "type": "uint256",
          "internalType": "uint256"
        }
      ],
      "stateMutability": "view"
    },
    {
      "type": "function",
      "name": "owned",
      "inputs": [
        {
          "name": "owner_",
          "type": "address",
          "internalType": "address"
        }
      ],
      "outputs": [
        {
          "name": "",
          "type": "uint256[]",
          "internalType": "uint256[]"
        }
      ],
      "stateMutability": "view"
    },
    {
      "type": "function",
      "name": "owner",
      "inputs": [],
      "outputs": [
        {
          "name": "",
          "type": "address",
          "internalType": "address"
        }
      ],
      "stateMutability": "view"
    },
    {
      "type": "function",
      "name": "ownerOf",
      "inputs": [
        {
          "name": "id_",
          "type": "uint256",
          "internalType": "uint256"
        }
      ],
      "outputs": [
        {
          "name": "erc721Owner",
          "type": "address",
          "internalType": "address"
        }
      ],
      "stateMutability": "view"
    },
    {
      "type": "function",
      "name": "permit",
      "inputs": [
        {
          "name": "owner_",
          "type": "address",
          "internalType": "address"
        },
        {
          "name": "spender_",
          "type": "address",
          "internalType": "address"
        },
        {
          "name": "value_",
          "type": "uint256",
          "internalType": "uint256"
        },
        {
          "name": "deadline_",
          "type": "uint256",
          "internalType": "uint256"
        },
        {
          "name": "v_",
          "type": "uint8",
          "internalType": "uint8"
        },
        {
          "name": "r_",
          "type": "bytes32",
          "internalType": "bytes32"
        },
        {
          "name": "s_",
          "type": "bytes32",
          "internalType": "bytes32"
        }
      ],
      "outputs": [],
      "stateMutability": "nonpayable"
    },
    {
      "type": "function",
      "name": "renounceOwnership",
      "inputs": [],
      "outputs": [],
      "stateMutability": "nonpayable"
    },
    {
      "type": "function",
      "name": "safeTransferFrom",
      "inputs": [
        {
          "name": "from_",
          "type": "address",
          "internalType": "address"
        },
        {
          "name": "to_",
          "type": "address",
          "internalType": "address"
        },
        {
          "name": "id_",
          "type": "uint256",
          "internalType": "uint256"
        }
      ],
      "outputs": [],
      "stateMutability": "nonpayable"
    },
    {
      "type": "function",
      "name": "safeTransferFrom",
      "inputs": [
        {
          "name": "from_",
          "type": "address",
          "internalType": "address"
        },
        {
          "name": "to_",
          "type": "address",
          "internalType": "address"
        },
        {
          "name": "id_",
          "type": "uint256",
          "internalType": "uint256"
        },
        {
          "name": "data_",
          "type": "bytes",
          "internalType": "bytes"
        }
      ],
      "outputs": [],
      "stateMutability": "nonpayable"
    },
    {
      "type": "function",
      "name": "scratch",
      "inputs": [
        {
          "name": "tokenId",
          "type": "uint256",
          "internalType": "uint256"
        }
      ],
      "outputs": [],
      "stateMutability": "nonpayable"
    },
    {
      "type": "function",
      "name": "seeds",
      "inputs": [
        {
          "name": "",
          "type": "uint256",
          "internalType": "uint256"
        }
      ],
      "outputs": [
        {
          "name": "background",
          "type": "uint48",
          "internalType": "uint48"
        },
        {
          "name": "body",
          "type": "uint48",
          "internalType": "uint48"
        },
        {
          "name": "accessory",
          "type": "uint48",
          "internalType": "uint48"
        },
        {
          "name": "head",
          "type": "uint48",
          "internalType": "uint48"
        },
        {
          "name": "glasses",
          "type": "uint48",
          "internalType": "uint48"
        }
      ],
      "stateMutability": "view"
    },
    {
      "type": "function",
      "name": "setApprovalForAll",
      "inputs": [
        {
          "name": "operator_",
          "type": "address",
          "internalType": "address"
        },
        {
          "name": "approved_",
          "type": "bool",
          "internalType": "bool"
        }
      ],
      "outputs": [],
      "stateMutability": "nonpayable"
    },
    {
      "type": "function",
      "name": "setMinter",
      "inputs": [
        {
          "name": "_minter",
          "type": "address",
          "internalType": "address"
        }
      ],
      "outputs": [],
      "stateMutability": "nonpayable"
    },
    {
      "type": "function",
      "name": "setSelfERC721TransferExempt",
      "inputs": [
        {
          "name": "state_",
          "type": "bool",
          "internalType": "bool"
        }
      ],
      "outputs": [],
      "stateMutability": "nonpayable"
    },
    {
      "type": "function",
      "name": "supportsInterface",
      "inputs": [
        {
          "name": "interfaceId",
          "type": "bytes4",
          "internalType": "bytes4"
        }
      ],
      "outputs": [
        {
          "name": "",
          "type": "bool",
          "internalType": "bool"
        }
      ],
      "stateMutability": "view"
    },
    {
      "type": "function",
      "name": "symbol",
      "inputs": [],
      "outputs": [
        {
          "name": "",
          "type": "string",
          "internalType": "string"
        }
      ],
      "stateMutability": "view"
    },
    {
      "type": "function",
      "name": "tokenURI",
      "inputs": [
        {
          "name": "tokenId",
          "type": "uint256",
          "internalType": "uint256"
        }
      ],
      "outputs": [
        {
          "name": "",
          "type": "string",
          "internalType": "string"
        }
      ],
      "stateMutability": "view"
    },
    {
      "type": "function",
      "name": "totalSupply",
      "inputs": [],
      "outputs": [
        {
          "name": "",
          "type": "uint256",
          "internalType": "uint256"
        }
      ],
      "stateMutability": "view"
    },
    {
      "type": "function",
      "name": "transfer",
      "inputs": [
        {
          "name": "to_",
          "type": "address",
          "internalType": "address"
        },
        {
          "name": "value_",
          "type": "uint256",
          "internalType": "uint256"
        }
      ],
      "outputs": [
        {
          "name": "",
          "type": "bool",
          "internalType": "bool"
        }
      ],
      "stateMutability": "nonpayable"
    },
    {
      "type": "function",
      "name": "transferFrom",
      "inputs": [
        {
          "name": "from_",
          "type": "address",
          "internalType": "address"
        },
        {
          "name": "to_",
          "type": "address",
          "internalType": "address"
        },
        {
          "name": "valueOrId_",
          "type": "uint256",
          "internalType": "uint256"
        }
      ],
      "outputs": [
        {
          "name": "",
          "type": "bool",
          "internalType": "bool"
        }
      ],
      "stateMutability": "nonpayable"
    },
    {
      "type": "function",
      "name": "transferOwnership",
      "inputs": [
        {
          "name": "newOwner",
          "type": "address",
          "internalType": "address"
        }
      ],
      "outputs": [],
      "stateMutability": "nonpayable"
    },
    {
      "type": "function",
      "name": "units",
      "inputs": [],
      "outputs": [
        {
          "name": "",
          "type": "uint256",
          "internalType": "uint256"
        }
      ],
      "stateMutability": "view"
    },
    {
      "type": "event",
      "name": "Approval",
      "inputs": [
        {
          "name": "owner",
          "type": "address",
          "indexed": true,
          "internalType": "address"
        },
        {
          "name": "spender",
          "type": "address",
          "indexed": true,
          "internalType": "address"
        },
        {
          "name": "value",
          "type": "uint256",
          "indexed": false,
          "internalType": "uint256"
        }
      ],
      "anonymous": false
    },
    {
      "type": "event",
      "name": "Approval",
      "inputs": [
        {
          "name": "owner",
          "type": "address",
          "indexed": true,
          "internalType": "address"
        },
        {
          "name": "spender",
          "type": "address",
          "indexed": true,
          "internalType": "address"
        },
        {
          "name": "id",
          "type": "uint256",
          "indexed": true,
          "internalType": "uint256"
        }
      ],
      "anonymous": false
    },
    {
      "type": "event",
      "name": "ApprovalForAll",
      "inputs": [
        {
          "name": "owner",
          "type": "address",
          "indexed": true,
          "internalType": "address"
        },
        {
          "name": "operator",
          "type": "address",
          "indexed": true,
          "internalType": "address"
        },
        {
          "name": "approved",
          "type": "bool",
          "indexed": false,
          "internalType": "bool"
        }
      ],
      "anonymous": false
    },
    {
      "type": "event",
      "name": "OwnershipTransferred",
      "inputs": [
        {
          "name": "previousOwner",
          "type": "address",
          "indexed": true,
          "internalType": "address"
        },
        {
          "name": "newOwner",
          "type": "address",
          "indexed": true,
          "internalType": "address"
        }
      ],
      "anonymous": false
    },
    {
      "type": "event",
      "name": "Transfer",
      "inputs": [
        {
          "name": "from",
          "type": "address",
          "indexed": true,
          "internalType": "address"
        },
        {
          "name": "to",
          "type": "address",
          "indexed": true,
          "internalType": "address"
        },
        {
          "name": "amount",
          "type": "uint256",
          "indexed": false,
          "internalType": "uint256"
        }
      ],
      "anonymous": false
    },
    {
      "type": "event",
      "name": "Transfer",
      "inputs": [
        {
          "name": "from",
          "type": "address",
          "indexed": true,
          "internalType": "address"
        },
        {
          "name": "to",
          "type": "address",
          "indexed": true,
          "internalType": "address"
        },
        {
          "name": "id",
          "type": "uint256",
          "indexed": true,
          "internalType": "uint256"
        }
      ],
      "anonymous": false
    },
    {
      "type": "error",
      "name": "AlreadyExists",
      "inputs": []
    },
    {
      "type": "error",
      "name": "DecimalsTooLow",
      "inputs": []
    },
    {
      "type": "error",
      "name": "InsufficientAllowance",
      "inputs": []
    },
    {
      "type": "error",
      "name": "InvalidApproval",
      "inputs": []
    },
    {
      "type": "error",
      "name": "InvalidExemption",
      "inputs": []
    },
    {
      "type": "error",
      "name": "InvalidOperator",
      "inputs": []
    },
    {
      "type": "error",
      "name": "InvalidRecipient",
      "inputs": []
    },
    {
      "type": "error",
      "name": "InvalidSender",
      "inputs": []
    },
    {
      "type": "error",
      "name": "InvalidSigner",
      "inputs": []
    },
    {
      "type": "error",
      "name": "InvalidSpender",
      "inputs": []
    },
    {
      "type": "error",
      "name": "InvalidTokenId",
      "inputs": []
    },
    {
      "type": "error",
      "name": "MintLimitReached",
      "inputs": []
    },
    {
      "type": "error",
      "name": "NotFound",
      "inputs": []
    },
    {
      "type": "error",
      "name": "OwnedIndexOverflow",
      "inputs": []
    },
    {
      "type": "error",
      "name": "PermitDeadlineExpired",
      "inputs": []
    },
    {
      "type": "error",
      "name": "QueueEmpty",
      "inputs": []
    },
    {
      "type": "error",
      "name": "QueueFull",
      "inputs": []
    },
    {
      "type": "error",
      "name": "QueueOutOfBounds",
      "inputs": []
    },
    {
      "type": "error",
      "name": "RecipientIsERC721TransferExempt",
      "inputs": []
    },
    {
      "type": "error",
      "name": "Unauthorized",
      "inputs": []
    },
    {
      "type": "error",
      "name": "UnsafeRecipient",
      "inputs": []
    }
  ],
  "bytecode": {
    "object": "0x61010060405234801562000011575f80fd5b5060405162002f4938038062002f498339810160408190526200003491620002c1565b858585600262000045848262000409565b50600362000054838262000409565b5060128160ff1610156200007b576040516398790fd560e01b815260040160405180910390fd5b60ff811660808190526200009190600a620005e4565b60a0524660c052620000a2620000fc565b60e05250620000b5915033905062000197565b600f80546001600160a01b039485166001600160a01b0319918216179091556010805493851693821693909317909255601180549190931691161790555062000675915050565b5f7f8b73c3c69bb8fe3d512ecc4cf759cc79239f7b179b0ffacaa9a75d522b39400f60026040516200012f9190620005fb565b6040805191829003822060208301939093528101919091527fc89efdaa54c0f20c7adf612882df0950f5a951637e0307cdcb4c672f298b8bc660608201524660808201523060a082015260c00160405160208183030381529060405280519060200120905090565b600e80546001600160a01b038381166001600160a01b0319831681179093556040519116919082907f8be0079c531659141344cd1fd0a4f28419497f9722a3daafe3b4186f6b6457e0905f90a35050565b634e487b7160e01b5f52604160045260245ffd5b5f82601f8301126200020c575f80fd5b81516001600160401b0380821115620002295762000229620001e8565b604051601f8301601f19908116603f01168101908282118183101715620002545762000254620001e8565b816040528381526020925086602085880101111562000271575f80fd5b5f91505b8382101562000294578582018301518183018401529082019062000275565b5f602085830101528094505050505092915050565b6001600160a01b0381168114620002be575f80fd5b50565b5f805f805f8060c08789031215620002d7575f80fd5b86516001600160401b0380821115620002ee575f80fd5b620002fc8a838b01620001fc565b9750602089015191508082111562000312575f80fd5b506200032189828a01620001fc565b955050604087015160ff8116811462000338575f80fd5b60608801519094506200034b81620002a9565b60808801519093506200035e81620002a9565b60a08801519092506200037181620002a9565b809150509295509295509295565b600181811c908216806200039457607f821691505b602082108103620003b357634e487b7160e01b5f52602260045260245ffd5b50919050565b601f8211156200040457805f5260205f20601f840160051c81016020851015620003e05750805b601f840160051c820191505b8181101562000401575f8155600101620003ec565b50505b505050565b81516001600160401b03811115620004255762000425620001e8565b6200043d816200043684546200037f565b84620003b9565b602080601f83116001811462000473575f84156200045b5750858301515b5f19600386901b1c1916600185901b178555620004cd565b5f85815260208120601f198616915b82811015620004a35788860151825594840194600190910190840162000482565b5085821015620004c157878501515f19600388901b60f8161c191681555b505060018460011b0185555b505050505050565b634e487b7160e01b5f52601160045260245ffd5b600181815b808511156200052957815f19048211156200050d576200050d620004d5565b808516156200051b57918102915b93841c9390800290620004ee565b509250929050565b5f826200054157506001620005de565b816200054f57505f620005de565b8160018114620005685760028114620005735762000593565b6001915050620005de565b60ff841115620005875762000587620004d5565b50506001821b620005de565b5060208310610133831016604e8410600b8410161715620005b8575081810a620005de565b620005c48383620004e9565b805f1904821115620005da57620005da620004d5565b0290505b92915050565b5f620005f460ff84168362000531565b9392505050565b5f8083546200060a816200037f565b600182811680156200062557600181146200063b5762000669565b60ff198416875282151583028701945062000669565b875f526020805f205f5b85811015620006605781548a82015290840190820162000645565b50505082870194505b50929695505050505050565b60805160a05160c05160e051612853620006f65f395f61089201525f61086201525f81816104cd015281816111d70152818161167c015281816116bf0152818161173601528181611760015281816117b201528181611859015281816118a5015281816118e9015281816119100152611cbf01525f61038a01526128535ff3fe608060405234801561000f575f80fd5b506004361061026b575f3560e01c806389fb4c661161014b578063c87b56dd116100bf578063dfabc03311610084578063dfabc033146105ee578063e985e9c514610601578063f0503e801461062e578063f2fde38b146106bb578063f780bc1a146106ce578063fca3b5aa146106e1575f80fd5b8063c87b56dd14610578578063d505accf1461058b578063d96ca0b91461059e578063dd62ed3e146105b1578063dd637699146105db575f80fd5b8063a22cb46511610110578063a22cb465146104ef578063a9059cbb14610502578063b1ab931714610515578063b3f9ea3414610535578063b88d4fde1461055d578063c5ab3ba614610570575f80fd5b806389fb4c66146104945780638a696e501461049c5780638da5cb5b146104af57806395d89b41146104c0578063976a8435146104c8575f80fd5b806337a6096a116101e25780636352211e116101a75780636352211e1461041d5780636e8f624b1461043057806370a082311461043b578063715018a61461045a5780637c4ca9cc146104625780637ecebe0014610475575f80fd5b806337a6096a146103c657806342842e0e146103db5780634d966072146103ee5780634f02c420146104015780635ac1e3bb1461040a575f80fd5b806309674eb01161023357806309674eb01461033557806309f0ef651461035657806318160ddd1461036957806323b872dd14610372578063313ce567146103855780633644e515146103be575f80fd5b806301ffc9a71461026f57806302519da31461029757806306fdde03146102cd578063081812fc146102e2578063095ea7b314610322575b5f80fd5b61028261027d366004612106565b6106f4565b60405190151581526020015b60405180910390f35b6102bf6102a5366004612137565b6001600160a01b03165f9081526006602052604090205490565b60405190815260200161028e565b6102d561072a565b60405161028e919061219d565b61030a6102f03660046121af565b60086020525f90815260409020546001600160a01b031681565b6040516001600160a01b03909116815260200161028e565b6102826103303660046121c6565b6107b6565b5f546001600160801b03808216600160801b909204811691909103166102bf565b610282610364366004612137565b6107f3565b6102bf60045481565b6102826103803660046121ee565b610823565b6103ac7f000000000000000000000000000000000000000000000000000000000000000081565b60405160ff909116815260200161028e565b6102bf61085f565b6103d96103d43660046121af565b6108b4565b005b6103d96103e93660046121ee565b6108c2565b6102826103fc3660046121c6565b6108e1565b6102bf60055481565b6102d56104183660046121af565b61096c565b61030a61042b3660046121af565b610a2b565b6102bf600160ff1b81565b6102bf610449366004612137565b60066020525f908152604090205481565b6103d9610a94565b6103d96104703660046121c6565b610ac9565b6102bf610483366004612137565b600d6020525f908152604090205481565b6004546102bf565b6103d96104aa366004612236565b610b31565b600e546001600160a01b031661030a565b6102d5610b3b565b6102bf7f000000000000000000000000000000000000000000000000000000000000000081565b6103d96104fd36600461224f565b610b48565b6102826105103660046121c6565b610bda565b610528610523366004612137565b610c0d565b60405161028e9190612280565b6102bf610543366004612137565b6001600160a01b03165f908152600b602052604090205490565b6103d961056b36600461232f565b610c76565b6005546102bf565b6102d56105863660046121af565b610d61565b6103d96105993660046123d3565b610dd6565b6102826105ac3660046121ee565b611013565b6102bf6105bf366004612440565b600760209081525f928352604080842090915290825290205481565b6103d96105e93660046121ee565b6110cf565b6103d96105fc3660046121c6565b611206565b61028261060f366004612440565b600960209081525f928352604080842090915290825290205460ff1681565b61068261063c3660046121af565b60126020525f908152604090205465ffffffffffff8082169166010000000000008104821691600160601b8204811691600160901b8104821691600160c01b9091041685565b6040805165ffffffffffff968716815294861660208601529285169284019290925283166060830152909116608082015260a00161028e565b6103d96106c9366004612137565b6112c8565b6105286106dc366004612468565b611360565b6103d96106ef366004612137565b6113fb565b5f6001600160e01b0319821663caf91ff560e01b148061072457506001600160e01b031982166301ffc9a760e01b145b92915050565b6002805461073790612488565b80601f016020809104026020016040519081016040528092919081815260200182805461076390612488565b80156107ae5780601f10610785576101008083540402835291602001916107ae565b820191905f5260205f20905b81548152906001019060200180831161079157829003601f168201915b505050505081565b5f6107c082611447565b156107d4576107cf8383611206565b6107e5565b6107de83836108e1565b9050610724565b50600192915050565b905090565b5f6001600160a01b03821615806107245750506001600160a01b03165f908152600c602052604090205460ff1690565b5f61082d82611447565b156108425761083d8484846110cf565b610854565b61084d848484611013565b9050610858565b5060015b9392505050565b5f7f0000000000000000000000000000000000000000000000000000000000000000461461088f576107ee61145e565b507f000000000000000000000000000000000000000000000000000000000000000090565b6108bf335f836110cf565b50565b6108dc83838360405180602001604052805f815250610c76565b505050565b5f6001600160a01b03831661090957604051635461585f60e01b815260040160405180910390fd5b335f8181526007602090815260408083206001600160a01b03881680855290835292819020869055518581529192917f8c5be1e5ebec7d5bd14f71427d1e84f3dd0314c0f7b2291e5b200ac8c7c3b925910160405180910390a350600192915050565b5f818152600a60205260409020546060906001600160a01b03166109ab5760405162461bcd60e51b81526004016109a2906124c0565b60405180910390fd5b600f545f83815260126020526040908190209051630638ac2760e41b81526001600160a01b039092169163638ac270916109ea9186919060040161250b565b5f60405180830381865afa158015610a04573d5f803e3d5ffd5b505050506040513d5f823e601f3d908101601f191682016040526107249190810190612550565b5f818152600a60205260409020546001600160a01b0316610a4b82611447565b610a68576040516307ed98ed60e31b815260040160405180910390fd5b6001600160a01b038116610a8f5760405163c5723b5160e01b815260040160405180910390fd5b919050565b600e546001600160a01b03163314610abe5760405162461bcd60e51b81526004016109a2906125b9565b610ac75f6114f7565b565b6011546001600160a01b03163314610b235760405162461bcd60e51b815260206004820152601f60248201527f4f6e6c79206d696e7465722063616e206d696e74206e657720746f6b656e730060448201526064016109a2565b610b2d8282611548565b5050565b6108bf33826115ac565b6003805461073790612488565b6001600160a01b038216610b6f5760405163ccea9e6f60e01b815260040160405180910390fd5b335f8181526009602090815260408083206001600160a01b03871680855290835292819020805460ff191686151590811790915590519081529192917f17307eab39ab6107e8899845ad3d59bd9653f200f220920489ca2b5937696c31910160405180910390a35050565b5f6001600160a01b038316610c0257604051634e46966960e11b815260040160405180910390fd5b61085833848461161a565b6001600160a01b0381165f908152600b6020908152604091829020805483518184028101840190945280845260609392830182828015610c6a57602002820191905f5260205f20905b815481526020019060010190808311610c56575b50505050509050919050565b610c7f82611447565b610c9c576040516307ed98ed60e31b815260040160405180910390fd5b610ca7848484610823565b506001600160a01b0383163b15801590610d3d5750604051630a85bd0160e11b808252906001600160a01b0385169063150b7a0290610cf09033908990889088906004016125ee565b6020604051808303815f875af1158015610d0c573d5f803e3d5ffd5b505050506040513d601f19601f82011682018060405250810190610d30919061262a565b6001600160e01b03191614155b15610d5b57604051633da6393160e01b815260040160405180910390fd5b50505050565b5f818152600a60205260409020546060906001600160a01b0316610d975760405162461bcd60e51b81526004016109a2906124c0565b600f545f83815260126020526040908190209051633cfdafd360e01b81526001600160a01b0390921691633cfdafd3916109ea9186919060040161250b565b42841015610df7576040516305787bdf60e01b815260040160405180910390fd5b610e0085611447565b15610e1e576040516303e7c1bd60e31b815260040160405180910390fd5b6001600160a01b038616610e4557604051635461585f60e01b815260040160405180910390fd5b5f6001610e5061085f565b6001600160a01b038a81165f818152600d602090815260409182902080546001810190915582517f6e71edae12b1b97f4d1f60370fef10105fa2faae0126114a169c64845d6126c98184015280840194909452938d166060840152608083018c905260a083019390935260c08083018b90528151808403909101815260e08301909152805192019190912061190160f01b6101008301526101028201929092526101228101919091526101420160408051601f1981840301815282825280516020918201205f84529083018083525260ff871690820152606081018590526080810184905260a0016020604051602081039080840390855afa158015610f58573d5f803e3d5ffd5b5050604051601f1901519150506001600160a01b0381161580610f8d5750876001600160a01b0316816001600160a01b031614155b15610fab57604051632057875960e21b815260040160405180910390fd5b6001600160a01b039081165f9081526007602090815260408083208a8516808552908352928190208990555188815291928a16917f8c5be1e5ebec7d5bd14f71427d1e84f3dd0314c0f7b2291e5b200ac8c7c3b925910160405180910390a350505050505050565b5f6001600160a01b03841661103b57604051636edaef2f60e11b815260040160405180910390fd5b6001600160a01b03831661106257604051634e46966960e11b815260040160405180910390fd5b6001600160a01b0384165f9081526007602090815260408083203384529091529020545f1981146110bb576110978382612659565b6001600160a01b0386165f9081526007602090815260408083203384529091529020555b6110c685858561161a565b95945050505050565b6001600160a01b0383166110f657604051636edaef2f60e11b815260040160405180910390fd5b5f818152600a60205260409020546001600160a01b0384811691161461112e576040516282b42960e81b815260040160405180910390fd5b336001600160a01b0384161480159061116a57506001600160a01b0383165f90815260096020908152604080832033845290915290205460ff16155b801561118c57505f818152600860205260409020546001600160a01b03163314155b156111a9576040516282b42960e81b815260040160405180910390fd5b6111b2826107f3565b156111d057604051635ce7539760e01b815260040160405180910390fd5b6111fb83837f0000000000000000000000000000000000000000000000000000000000000000611980565b6108dc838383611a39565b5f818152600a60205260409020546001600160a01b031633811480159061125057506001600160a01b0381165f90815260096020908152604080832033845290915290205460ff16155b1561126d576040516282b42960e81b815260040160405180910390fd5b5f8281526008602052604080822080546001600160a01b0319166001600160a01b0387811691821790925591518593918516917f8c5be1e5ebec7d5bd14f71427d1e84f3dd0314c0f7b2291e5b200ac8c7c3b92591a4505050565b600e546001600160a01b031633146112f25760405162461bcd60e51b81526004016109a2906125b9565b6001600160a01b0381166113575760405162461bcd60e51b815260206004820152602660248201527f4f776e61626c653a206e6577206f776e657220697320746865207a65726f206160448201526564647265737360d01b60648201526084016109a2565b6108bf816114f7565b60605f8267ffffffffffffffff81111561137c5761137c6122c3565b6040519080825280602002602001820160405280156113a5578160200160208202803683370190505b509050835b6113b4848661266c565b8110156113f3576113c55f82611c05565b826113d08784612659565b815181106113e0576113e061267f565b60209081029190910101526001016113aa565b509392505050565b600e546001600160a01b031633146114255760405162461bcd60e51b81526004016109a2906125b9565b601180546001600160a01b0319166001600160a01b0392909216919091179055565b5f600160ff1b821180156107245750505f19141590565b5f7f8b73c3c69bb8fe3d512ecc4cf759cc79239f7b179b0ffacaa9a75d522b39400f600260405161148f9190612693565b6040805191829003822060208301939093528101919091527fc89efdaa54c0f20c7adf612882df0950f5a951637e0307cdcb4c672f298b8bc660608201524660808201523060a082015260c00160405160208183030381529060405280519060200120905090565b600e80546001600160a01b038381166001600160a01b0319831681179093556040519116919082907f8be0079c531659141344cd1fd0a4f28419497f9722a3daafe3b4186f6b6457e0905f90a35050565b6001600160a01b03821661156f57604051634e46966960e11b815260040160405180910390fd5b600160ff1b81600454611582919061266c565b11156115a15760405163303b682f60e01b815260040160405180910390fd5b6108dc5f838361161a565b6001600160a01b0382166115d35760405163a41e3d3f60e01b815260040160405180910390fd5b80156115e7576115e282611c6e565b6115f0565b6115f082611ca1565b6001600160a01b03919091165f908152600c60205260409020805460ff1916911515919091179055565b6001600160a01b038381165f9081526006602052604080822054928516825281205490919061164a868686611980565b5f611654876107f3565b90505f611660876107f3565b905081801561166c5750805b611972578115611712575f6116a17f000000000000000000000000000000000000000000000000000000000000000085612731565b6001600160a01b0389165f908152600660205260409020546116e4907f000000000000000000000000000000000000000000000000000000000000000090612731565b6116ee9190612659565b90505f5b8181101561170b5761170389611d2b565b6001016116f2565b5050611972565b80156117ac576001600160a01b0388165f9081526006602052604081205461175b907f000000000000000000000000000000000000000000000000000000000000000090612731565b6117857f000000000000000000000000000000000000000000000000000000000000000087612731565b61178f9190612659565b90505f5b8181101561170b576117a48a611f2d565b600101611793565b5f6117d77f000000000000000000000000000000000000000000000000000000000000000088612731565b90505f5b81811015611855576001600160a01b038a165f908152600b602052604081205461180790600190612659565b6001600160a01b038c165f908152600b6020526040812080549293509091839081106118355761183561267f565b905f5260205f200154905061184b8c8c83611a39565b50506001016117db565b50807f00000000000000000000000000000000000000000000000000000000000000006118968b6001600160a01b03165f9081526006602052604090205490565b6118a09190612731565b6118ca7f000000000000000000000000000000000000000000000000000000000000000088612731565b6118d49190612659565b11156118e3576118e389611f2d565b8061190e7f000000000000000000000000000000000000000000000000000000000000000086612731565b7f000000000000000000000000000000000000000000000000000000000000000061194d8b6001600160a01b03165f9081526006602052604090205490565b6119579190612731565b6119619190612659565b11156119705761197088611d2b565b505b506001979650505050505050565b6001600160a01b0383166119aa578060045f82825461199f919061266c565b909155506119d79050565b6001600160a01b0383165f90815260066020526040812080548392906119d1908490612659565b90915550505b6001600160a01b038083165f81815260066020526040908190208054850190555190918516907fddf252ad1be2c89b69c2b068fc378daa952ba7f163c4a11628f55a4df523b3ef90611a2c9085815260200190565b60405180910390a3505050565b6001600160a01b03831615611b3a575f81815260086020908152604080832080546001600160a01b03191690556001600160a01b0386168352600b90915281208054611a8790600190612659565b81548110611a9757611a9761267f565b905f5260205f2001549050818114611aff575f828152600a602052604081205460a01c6001600160a01b0386165f908152600b602052604090208054919250839183908110611ae857611ae861267f565b5f91825260209091200155611afd8282611fa9565b505b6001600160a01b0384165f908152600b60205260409020805480611b2557611b25612750565b600190038181905f5260205f20015f90559055505b6001600160a01b03821615611bb0575f818152600a6020908152604080832080546001600160a01b0319166001600160a01b038716908101909155808452600b83529083208054600181810183558286529385200185905592529054611bab918391611ba69190612659565b611fa9565b611bbf565b5f818152600a60205260408120555b80826001600160a01b0316846001600160a01b03167fddf252ad1be2c89b69c2b068fc378daa952ba7f163c4a11628f55a4df523b3ef60405160405180910390a4505050565b5f611c2883546001600160801b03808216600160801b9092048116919091031690565b8210611c475760405163580821e760e01b815260040160405180910390fd5b5081546001600160801b039081168201165f90815260018301602052604090205492915050565b6001600160a01b0381165f908152600b6020526040812054905b818110156108dc57611c9983611f2d565b600101611c88565b6001600160a01b0381165f90815260066020526040812054611ce4907f000000000000000000000000000000000000000000000000000000000000000090612731565b90505f611d05836001600160a01b03165f908152600b602052604090205490565b90505f5b611d138284612659565b811015610d5b57611d2384611d2b565b600101611d09565b6001600160a01b038116611d5257604051634e46966960e11b815260040160405180910390fd5b5f80546001600160801b03808216600160801b9092041614611d7e57611d775f612013565b9050611eec565b601054600f5460405163422e2e9960e01b8152600481018490526001600160a01b03918216602482015291169063422e2e999060440160a060405180830381865afa158015611dcf573d5f803e3d5ffd5b505050506040513d601f19601f82011682018060405250810190611df39190612779565b5f828152601260209081526040808320845181549386015192860151606087015160809097015165ffffffffffff908116600160c01b0265ffffffffffff60c01b19988216600160901b0265ffffffffffff60901b19938316600160601b02939093166bffffffffffffffffffffffff60601b199683166601000000000000026bffffffffffffffffffffffff19909816929094169190911795909517939093161791909117939093161790915560058054909190611eb190612805565b90915550600554600101611ed85760405163303b682f60e01b815260040160405180910390fd5b600554611ee990600160ff1b61266c565b90505b5f818152600a60205260409020546001600160a01b03168015611f225760405163119b4fd360e11b815260040160405180910390fd5b6108dc818484611a39565b6001600160a01b038116611f5457604051636edaef2f60e11b815260040160405180910390fd5b6001600160a01b0381165f908152600b602052604081208054611f7990600190612659565b81548110611f8957611f8961267f565b905f5260205f2001549050611f9f825f83611a39565b610b2d5f82612080565b5f828152600a60205260409020546bffffffffffffffffffffffff821115611fe457604051633f2cd0e360e21b815260040160405180910390fd5b5f928352600a60205260409092206001600160a01b039290921660a09190911b6001600160a01b031916019055565b80545f906001600160801b03600160801b8204811691168103612049576040516375e52f4f60e01b815260040160405180910390fd5b5f19016001600160801b039081165f818152600185016020526040812080549190558454909216600160801b909102179092555090565b81546001600160801b038082165f190191600160801b90048116908216036120bb57604051638acb5f2760e01b815260040160405180910390fd5b6001600160801b03165f81815260018401602052604090209190915581546fffffffffffffffffffffffffffffffff1916179055565b6001600160e01b0319811681146108bf575f80fd5b5f60208284031215612116575f80fd5b8135610858816120f1565b80356001600160a01b0381168114610a8f575f80fd5b5f60208284031215612147575f80fd5b61085882612121565b5f5b8381101561216a578181015183820152602001612152565b50505f910152565b5f8151808452612189816020860160208601612150565b601f01601f19169290920160200192915050565b602081525f6108586020830184612172565b5f602082840312156121bf575f80fd5b5035919050565b5f80604083850312156121d7575f80fd5b6121e083612121565b946020939093013593505050565b5f805f60608486031215612200575f80fd5b61220984612121565b925061221760208501612121565b9150604084013590509250925092565b80358015158114610a8f575f80fd5b5f60208284031215612246575f80fd5b61085882612227565b5f8060408385031215612260575f80fd5b61226983612121565b915061227760208401612227565b90509250929050565b602080825282518282018190525f9190848201906040850190845b818110156122b75783518352928401929184019160010161229b565b50909695505050505050565b634e487b7160e01b5f52604160045260245ffd5b604051601f8201601f1916810167ffffffffffffffff81118282101715612300576123006122c3565b604052919050565b5f67ffffffffffffffff821115612321576123216122c3565b50601f01601f191660200190565b5f805f8060808587031215612342575f80fd5b61234b85612121565b935061235960208601612121565b925060408501359150606085013567ffffffffffffffff81111561237b575f80fd5b8501601f8101871361238b575f80fd5b803561239e61239982612308565b6122d7565b8181528860208385010111156123b2575f80fd5b816020840160208301375f6020838301015280935050505092959194509250565b5f805f805f805f60e0888a0312156123e9575f80fd5b6123f288612121565b965061240060208901612121565b95506040880135945060608801359350608088013560ff81168114612423575f80fd5b9699959850939692959460a0840135945060c09093013592915050565b5f8060408385031215612451575f80fd5b61245a83612121565b915061227760208401612121565b5f8060408385031215612479575f80fd5b50508035926020909101359150565b600181811c9082168061249c57607f821691505b6020821081036124ba57634e487b7160e01b5f52602260045260245ffd5b50919050565b6020808252602b908201527f4e6f756e73546f6b656e3a2055524920717565727920666f72206e6f6e65786960408201526a39ba32b73a103a37b5b2b760a91b606082015260800190565b9182525465ffffffffffff8082166020840152603082901c81166040840152606082811c821690840152609082901c8116608084015260c091821c1660a08301520190565b5f60208284031215612560575f80fd5b815167ffffffffffffffff811115612576575f80fd5b8201601f81018413612586575f80fd5b805161259461239982612308565b8181528560208385010111156125a8575f80fd5b6110c6826020830160208601612150565b6020808252818101527f4f776e61626c653a2063616c6c6572206973206e6f7420746865206f776e6572604082015260600190565b6001600160a01b03858116825284166020820152604081018390526080606082018190525f9061262090830184612172565b9695505050505050565b5f6020828403121561263a575f80fd5b8151610858816120f1565b634e487b7160e01b5f52601160045260245ffd5b8181038181111561072457610724612645565b8082018082111561072457610724612645565b634e487b7160e01b5f52603260045260245ffd5b5f8083545f60018260011c915060018316806126b057607f831692505b602080841082036126cf57634e487b7160e01b5f52602260045260245ffd5b8180156126e357600181146126f857612723565b60ff1986168952841515850289019650612723565b5f8a8152602090205f5b8681101561271b5781548b820152908501908301612702565b505084890196505b509498975050505050505050565b5f8261274b57634e487b7160e01b5f52601260045260245ffd5b500490565b634e487b7160e01b5f52603160045260245ffd5b805165ffffffffffff81168114610a8f575f80fd5b5f60a08284031215612789575f80fd5b60405160a0810181811067ffffffffffffffff821117156127ac576127ac6122c3565b6040526127b883612764565b81526127c660208401612764565b60208201526127d760408401612764565b60408201526127e860608401612764565b60608201526127f960808401612764565b60808201529392505050565b5f6001820161281657612816612645565b506001019056fea26469706673582212206d71e0fbafcadc0de293873a978071d5eb9796af68c724af6316c461a0782af564736f6c63430008180033",
    "linkReferences": {}
  },
  "methodIdentifiers": {
    "DOMAIN_SEPARATOR()": "3644e515",
    "ID_ENCODING_PREFIX()": "6e8f624b",
    "allowance(address,address)": "dd62ed3e",
    "approve(address,uint256)": "095ea7b3",
    "balanceOf(address)": "70a08231",
    "dataURI(uint256)": "5ac1e3bb",
    "decimals()": "313ce567",
    "erc20Approve(address,uint256)": "4d966072",
    "erc20BalanceOf(address)": "02519da3",
    "erc20TotalSupply()": "89fb4c66",
    "erc20TransferFrom(address,address,uint256)": "d96ca0b9",
    "erc721Approve(address,uint256)": "dfabc033",
    "erc721BalanceOf(address)": "b3f9ea34",
    "erc721TotalSupply()": "c5ab3ba6",
    "erc721TransferExempt(address)": "09f0ef65",
    "erc721TransferFrom(address,address,uint256)": "dd637699",
    "getApproved(uint256)": "081812fc",
    "getERC721QueueLength()": "09674eb0",
    "getERC721TokensInQueue(uint256,uint256)": "f780bc1a",
    "isApprovedForAll(address,address)": "e985e9c5",
    "mintERC20(address,uint256)": "7c4ca9cc",
    "minted()": "4f02c420",
    "name()": "06fdde03",
    "nonces(address)": "7ecebe00",
    "owned(address)": "b1ab9317",
    "owner()": "8da5cb5b",
    "ownerOf(uint256)": "6352211e",
    "permit(address,address,uint256,uint256,uint8,bytes32,bytes32)": "d505accf",
    "renounceOwnership()": "715018a6",
    "safeTransferFrom(address,address,uint256)": "42842e0e",
    "safeTransferFrom(address,address,uint256,bytes)": "b88d4fde",
    "scratch(uint256)": "37a6096a",
    "seeds(uint256)": "f0503e80",
    "setApprovalForAll(address,bool)": "a22cb465",
    "setMinter(address)": "fca3b5aa",
    "setSelfERC721TransferExempt(bool)": "8a696e50",
    "supportsInterface(bytes4)": "01ffc9a7",
    "symbol()": "95d89b41",
    "tokenURI(uint256)": "c87b56dd",
    "totalSupply()": "18160ddd",
    "transfer(address,uint256)": "a9059cbb",
    "transferFrom(address,address,uint256)": "23b872dd",
    "transferOwnership(address)": "f2fde38b",
    "units()": "976a8435"
  },
  "id": 89
}